{
  "_format": "hh-sol-artifact-1",
  "contractName": "SampleSale",
  "sourceName": "contracts/SampleSale.sol",
  "abi": [
    {
      "inputs": [
        {
          "internalType": "address",
          "name": "_nft",
          "type": "address"
        }
      ],
      "stateMutability": "nonpayable",
      "type": "constructor"
    },
    {
      "inputs": [],
      "name": "InvalidProof",
      "type": "error"
    },
    {
      "inputs": [],
      "name": "InvalidQuantity",
      "type": "error"
    },
    {
      "inputs": [],
      "name": "OutOfSaleTime",
      "type": "error"
    },
    {
      "inputs": [],
      "name": "OverLimit",
      "type": "error"
    },
    {
      "inputs": [],
      "name": "OverSupply",
      "type": "error"
    },
    {
      "inputs": [],
      "name": "WrongPrice",
      "type": "error"
    },
    {
      "anonymous": false,
      "inputs": [
        {
          "indexed": true,
          "internalType": "address",
          "name": "previousOwner",
          "type": "address"
        },
        {
          "indexed": true,
          "internalType": "address",
          "name": "newOwner",
          "type": "address"
        }
      ],
      "name": "OwnershipTransferred",
      "type": "event"
    },
    {
      "inputs": [
        {
          "internalType": "address",
          "name": "",
          "type": "address"
        }
      ],
      "name": "addressToPreSaleMinted",
      "outputs": [
        {
          "internalType": "uint256",
          "name": "",
          "type": "uint256"
        }
      ],
      "stateMutability": "view",
      "type": "function"
    },
    {
      "inputs": [
        {
          "internalType": "address",
          "name": "",
          "type": "address"
        }
      ],
      "name": "addressToPublicSaleMinted",
      "outputs": [
        {
          "internalType": "uint256",
          "name": "",
          "type": "uint256"
        }
      ],
      "stateMutability": "view",
      "type": "function"
    },
    {
      "inputs": [
        {
          "internalType": "address",
          "name": "_user",
          "type": "address"
        },
        {
          "internalType": "bytes32[]",
          "name": "_proof",
          "type": "bytes32[]"
        }
      ],
      "name": "checkPreSaleEligible",
      "outputs": [
        {
          "internalType": "bool",
          "name": "",
          "type": "bool"
        }
      ],
      "stateMutability": "view",
      "type": "function"
    },
    {
      "inputs": [
        {
          "internalType": "address",
          "name": "_user",
          "type": "address"
        }
      ],
      "name": "checkPreSaleRemaining",
      "outputs": [
        {
          "internalType": "uint256",
          "name": "",
          "type": "uint256"
        }
      ],
      "stateMutability": "view",
      "type": "function"
    },
    {
      "inputs": [
        {
          "internalType": "address",
          "name": "_user",
          "type": "address"
        }
      ],
      "name": "checkPublicSaleRemaining",
      "outputs": [
        {
          "internalType": "uint256",
          "name": "",
          "type": "uint256"
        }
      ],
      "stateMutability": "view",
      "type": "function"
    },
    {
      "inputs": [],
      "name": "merkleRoot",
      "outputs": [
        {
          "internalType": "bytes32",
          "name": "",
          "type": "bytes32"
        }
      ],
      "stateMutability": "view",
      "type": "function"
    },
    {
      "inputs": [],
      "name": "nft",
      "outputs": [
        {
          "internalType": "contract ISampleNFT",
          "name": "",
          "type": "address"
        }
      ],
      "stateMutability": "view",
      "type": "function"
    },
    {
      "inputs": [],
      "name": "owner",
      "outputs": [
        {
          "internalType": "address",
          "name": "",
          "type": "address"
        }
      ],
      "stateMutability": "view",
      "type": "function"
    },
    {
      "inputs": [],
      "name": "preSaleEnd",
      "outputs": [
        {
          "internalType": "uint256",
          "name": "",
          "type": "uint256"
        }
      ],
      "stateMutability": "view",
      "type": "function"
    },
    {
      "inputs": [],
      "name": "preSaleLimit",
      "outputs": [
        {
          "internalType": "uint256",
          "name": "",
          "type": "uint256"
        }
      ],
      "stateMutability": "view",
      "type": "function"
    },
    {
      "inputs": [
        {
          "internalType": "uint256",
          "name": "_quantity",
          "type": "uint256"
        },
        {
          "internalType": "bytes32[]",
          "name": "_proof",
          "type": "bytes32[]"
        }
      ],
      "name": "preSaleMint",
      "outputs": [],
      "stateMutability": "payable",
      "type": "function"
    },
    {
      "inputs": [],
      "name": "preSaleStart",
      "outputs": [
        {
          "internalType": "uint256",
          "name": "",
          "type": "uint256"
        }
      ],
      "stateMutability": "view",
      "type": "function"
    },
    {
      "inputs": [],
      "name": "price",
      "outputs": [
        {
          "internalType": "uint256",
          "name": "",
          "type": "uint256"
        }
      ],
      "stateMutability": "view",
      "type": "function"
    },
    {
      "inputs": [],
      "name": "publicSaleEnd",
      "outputs": [
        {
          "internalType": "uint256",
          "name": "",
          "type": "uint256"
        }
      ],
      "stateMutability": "view",
      "type": "function"
    },
    {
      "inputs": [],
      "name": "publicSaleLimit",
      "outputs": [
        {
          "internalType": "uint256",
          "name": "",
          "type": "uint256"
        }
      ],
      "stateMutability": "view",
      "type": "function"
    },
    {
      "inputs": [
        {
          "internalType": "uint256",
          "name": "_quantity",
          "type": "uint256"
        }
      ],
      "name": "publicSaleMint",
      "outputs": [],
      "stateMutability": "payable",
      "type": "function"
    },
    {
      "inputs": [],
      "name": "publicSaleStart",
      "outputs": [
        {
          "internalType": "uint256",
          "name": "",
          "type": "uint256"
        }
      ],
      "stateMutability": "view",
      "type": "function"
    },
    {
      "inputs": [],
      "name": "renounceOwnership",
      "outputs": [],
      "stateMutability": "nonpayable",
      "type": "function"
    },
    {
      "inputs": [
        {
          "internalType": "bytes32",
          "name": "_root",
          "type": "bytes32"
        }
      ],
      "name": "setMerkleRoot",
      "outputs": [],
      "stateMutability": "nonpayable",
      "type": "function"
    },
    {
      "inputs": [
        {
          "internalType": "uint256",
          "name": "_preSaleEnd",
          "type": "uint256"
        }
      ],
      "name": "setPreSaleEnd",
      "outputs": [],
      "stateMutability": "nonpayable",
      "type": "function"
    },
    {
      "inputs": [
        {
          "internalType": "uint256",
          "name": "_preSaleLimit",
          "type": "uint256"
        }
      ],
      "name": "setPreSaleLimit",
      "outputs": [],
      "stateMutability": "nonpayable",
      "type": "function"
    },
    {
      "inputs": [
        {
          "internalType": "uint256",
          "name": "_preSaleStart",
          "type": "uint256"
        }
      ],
      "name": "setPreSaleStart",
      "outputs": [],
      "stateMutability": "nonpayable",
      "type": "function"
    },
    {
      "inputs": [
        {
          "internalType": "uint256",
          "name": "_publicSaleEnd",
          "type": "uint256"
        }
      ],
      "name": "setPublicSaleEnd",
      "outputs": [],
      "stateMutability": "nonpayable",
      "type": "function"
    },
    {
      "inputs": [
        {
          "internalType": "uint256",
          "name": "_publicSaleLimit",
          "type": "uint256"
        }
      ],
      "name": "setPublicSaleLimit",
      "outputs": [],
      "stateMutability": "nonpayable",
      "type": "function"
    },
    {
      "inputs": [
        {
          "internalType": "uint256",
          "name": "_publicSaleStart",
          "type": "uint256"
        }
      ],
      "name": "setPublicSaleStart",
      "outputs": [],
      "stateMutability": "nonpayable",
      "type": "function"
    },
    {
      "inputs": [
        {
          "internalType": "uint256",
          "name": "_supply",
          "type": "uint256"
        }
      ],
      "name": "setSupply",
      "outputs": [],
      "stateMutability": "nonpayable",
      "type": "function"
    },
    {
      "inputs": [],
      "name": "supply",
      "outputs": [
        {
          "internalType": "uint256",
          "name": "",
          "type": "uint256"
        }
      ],
      "stateMutability": "view",
      "type": "function"
    },
    {
      "inputs": [],
      "name": "totalSupply",
      "outputs": [
        {
          "internalType": "uint256",
          "name": "",
          "type": "uint256"
        }
      ],
      "stateMutability": "view",
      "type": "function"
    },
    {
      "inputs": [
        {
          "internalType": "address",
          "name": "newOwner",
          "type": "address"
        }
      ],
      "name": "transferOwnership",
      "outputs": [],
      "stateMutability": "nonpayable",
      "type": "function"
    },
    {
      "inputs": [
        {
          "internalType": "address",
          "name": "_to",
          "type": "address"
        }
      ],
      "name": "withdraw",
      "outputs": [],
      "stateMutability": "nonpayable",
      "type": "function"
    }
  ],
  "bytecode": "0x608060405266b1a2bc2ec500006002556103e860035563644e82706004556364760f7060055563647760f060065563659030706007556003600855600560095534801561004b57600080fd5b506040516110e73803806110e783398101604081905261006a916100e8565b61007333610098565b600180546001600160a01b0319166001600160a01b0392909216919091179055610118565b600080546001600160a01b038381166001600160a01b0319831681178455604051919092169283917f8be0079c531659141344cd1fd0a4f28419497f9722a3daafe3b4186f6b6457e09190a35050565b6000602082840312156100fa57600080fd5b81516001600160a01b038116811461011157600080fd5b9392505050565b610fc0806101276000396000f3fe6080604052600436106101cd5760003560e01c806365fcfd24116100f75780638da5cb5b11610095578063b8b7e1de11610064578063b8b7e1de146104da578063e770cbec14610507578063ec9b5cb214610527578063f2fde38b1461053d57600080fd5b80638da5cb5b1461047d578063909d68771461049b578063a035b1fe146104b1578063b3ab66b0146104c757600080fd5b8063715018a6116100d1578063715018a61461040857806376c99e121461041d5780637cb647591461043d5780637f64c6511461045d57600080fd5b806365fcfd24146103bc5780636bc64e0f146103dc5780636e3de87c146103f257600080fd5b80633360caa01161016f5780634c220f6e1161013e5780634c220f6e1461033957806351cff8d91461034c5780635908092a1461036c5780635d8aa6501461039c57600080fd5b80633360caa0146102ab57806339d82c59146102c15780633b4c4b25146102e157806347ccca021461030157600080fd5b80630d5624b3116101ab5780630d5624b31461023d57806318160ddd1461025357806320fdb1d2146102685780632eb4a7ab1461029557600080fd5b8063047fc9aa146101d25780630b1f703c146101fb5780630ca282f71461021d575b600080fd5b3480156101de57600080fd5b506101e860035481565b6040519081526020015b60405180910390f35b34801561020757600080fd5b5061021b610216366004610dbc565b61055d565b005b34801561022957600080fd5b5061021b610238366004610dbc565b61056a565b34801561024957600080fd5b506101e860045481565b34801561025f57600080fd5b506101e8610577565b34801561027457600080fd5b506101e8610283366004610df1565b600a6020526000908152604090205481565b3480156102a157600080fd5b506101e8600c5481565b3480156102b757600080fd5b506101e860065481565b3480156102cd57600080fd5b5061021b6102dc366004610dbc565b6105ea565b3480156102ed57600080fd5b5061021b6102fc366004610dbc565b6105f7565b34801561030d57600080fd5b50600154610321906001600160a01b031681565b6040516001600160a01b0390911681526020016101f2565b61021b610347366004610e58565b610604565b34801561035857600080fd5b5061021b610367366004610df1565b61087c565b34801561037857600080fd5b5061038c610387366004610ea4565b6108f4565b60405190151581526020016101f2565b3480156103a857600080fd5b5061021b6103b7366004610dbc565b61097a565b3480156103c857600080fd5b5061021b6103d7366004610dbc565b610987565b3480156103e857600080fd5b506101e860055481565b3480156103fe57600080fd5b506101e860095481565b34801561041457600080fd5b5061021b610994565b34801561042957600080fd5b506101e8610438366004610df1565b6109a8565b34801561044957600080fd5b5061021b610458366004610dbc565b6109d4565b34801561046957600080fd5b506101e8610478366004610df1565b6109e1565b34801561048957600080fd5b506000546001600160a01b0316610321565b3480156104a757600080fd5b506101e860085481565b3480156104bd57600080fd5b506101e860025481565b61021b6104d5366004610dbc565b610a07565b3480156104e657600080fd5b506101e86104f5366004610df1565b600b6020526000908152604090205481565b34801561051357600080fd5b5061021b610522366004610dbc565b610be5565b34801561053357600080fd5b506101e860075481565b34801561054957600080fd5b5061021b610558366004610df1565b610bf2565b610565610c70565b600855565b610572610c70565b600655565b600154604080516318160ddd60e01b815290516000926001600160a01b0316916318160ddd9160048083019260209291908290030181865afa1580156105c1573d6000803e3d6000fd5b505050506040513d601f19601f820116820180604052508101906105e59190610ede565b905090565b6105f2610c70565b600955565b6105ff610c70565b600355565b600083116106255760405163524f409b60e01b815260040160405180910390fd5b600354600154604080516318160ddd60e01b8152905186926001600160a01b0316916318160ddd9160048083019260209291908290030181865afa158015610671573d6000803e3d6000fd5b505050506040513d601f19601f820116820180604052508101906106959190610ede565b61069f9190610f0d565b11156106be5760405163b92e052f60e01b815260040160405180910390fd5b4260045411806106cf575060055442115b156106ed5760405163e720e51960e01b815260040160405180910390fd5b600854336000908152600a602052604090205461070a9085610f0d565b11156107295760405163b92612ed60e01b815260040160405180910390fd5b826002546107379190610f25565b34146107565760405163f7760f2560e01b815260040160405180910390fd5b6040516bffffffffffffffffffffffff193360601b1660208201526000906034016040516020818303038152906040528051906020012090506107d083838080602002602001604051908101604052809392919081815260200183836020028082843760009201919091525050600c549150849050610cca565b6107ed576040516309bde33960e01b815260040160405180910390fd5b6001546040516340c10f1960e01b8152336004820152602481018690526001600160a01b03909116906340c10f1990604401600060405180830381600087803b15801561083957600080fd5b505af115801561084d573d6000803e3d6000fd5b5050336000908152600a602052604081208054889450909250610871908490610f0d565b909155505050505050565b610884610c70565b478061088f57600080fd5b6000826001600160a01b03168260405160006040518083038185875af1925050503d80600081146108dc576040519150601f19603f3d011682016040523d82523d6000602084013e6108e1565b606091505b50509050806108ef57600080fd5b505050565b6040516bffffffffffffffffffffffff19606085901b166020820152600090819060340160405160208183030381529060405280519060200120905061097184848080602002602001604051908101604052809392919081815260200183836020028082843760009201919091525050600c549150849050610cca565b95945050505050565b610982610c70565b600755565b61098f610c70565b600455565b61099c610c70565b6109a66000610ce0565b565b6001600160a01b0381166000908152600b60205260408120546009546109ce9190610f44565b92915050565b6109dc610c70565b600c55565b6001600160a01b0381166000908152600a60205260408120546008546109ce9190610f44565b60008111610a285760405163524f409b60e01b815260040160405180910390fd5b600354600154604080516318160ddd60e01b8152905184926001600160a01b0316916318160ddd9160048083019260209291908290030181865afa158015610a74573d6000803e3d6000fd5b505050506040513d601f19601f82011682018060405250810190610a989190610ede565b610aa29190610f0d565b1115610ac15760405163b92e052f60e01b815260040160405180910390fd5b426006541180610ad2575060075442115b15610af05760405163e720e51960e01b815260040160405180910390fd5b600954336000908152600b6020526040902054610b0d9083610f0d565b1115610b2c5760405163b92612ed60e01b815260040160405180910390fd5b80600254610b3a9190610f25565b3414610b595760405163f7760f2560e01b815260040160405180910390fd5b6001546040516340c10f1960e01b8152336004820152602481018390526001600160a01b03909116906340c10f1990604401600060405180830381600087803b158015610ba557600080fd5b505af1158015610bb9573d6000803e3d6000fd5b5050336000908152600b602052604081208054859450909250610bdd908490610f0d565b909155505050565b610bed610c70565b600555565b610bfa610c70565b6001600160a01b038116610c645760405162461bcd60e51b815260206004820152602660248201527f4f776e61626c653a206e6577206f776e657220697320746865207a65726f206160448201526564647265737360d01b60648201526084015b60405180910390fd5b610c6d81610ce0565b50565b6000546001600160a01b031633146109a65760405162461bcd60e51b815260206004820181905260248201527f4f776e61626c653a2063616c6c6572206973206e6f7420746865206f776e65726044820152606401610c5b565b600082610cd78584610d3d565b14949350505050565b600080546001600160a01b0383811673ffffffffffffffffffffffffffffffffffffffff19831681178455604051919092169283917f8be0079c531659141344cd1fd0a4f28419497f9722a3daafe3b4186f6b6457e09190a35050565b600081815b8451811015610d8257610d6e82868381518110610d6157610d61610f5b565b6020026020010151610d8a565b915080610d7a81610f71565b915050610d42565b509392505050565b6000818310610da6576000828152602084905260409020610db5565b60008381526020839052604090205b9392505050565b600060208284031215610dce57600080fd5b5035919050565b80356001600160a01b0381168114610dec57600080fd5b919050565b600060208284031215610e0357600080fd5b610db582610dd5565b60008083601f840112610e1e57600080fd5b50813567ffffffffffffffff811115610e3657600080fd5b6020830191508360208260051b8501011115610e5157600080fd5b9250929050565b600080600060408486031215610e6d57600080fd5b83359250602084013567ffffffffffffffff811115610e8b57600080fd5b610e9786828701610e0c565b9497909650939450505050565b600080600060408486031215610eb957600080fd5b610ec284610dd5565b9250602084013567ffffffffffffffff811115610e8b57600080fd5b600060208284031215610ef057600080fd5b5051919050565b634e487b7160e01b600052601160045260246000fd5b60008219821115610f2057610f20610ef7565b500190565b6000816000190483118215151615610f3f57610f3f610ef7565b500290565b600082821015610f5657610f56610ef7565b500390565b634e487b7160e01b600052603260045260246000fd5b600060018201610f8357610f83610ef7565b506001019056fea26469706673582212207d0b4b796ba4fded339d72641ac81b2244703a2e0574a159f65dccea462505a964736f6c634300080d0033",
  "linkReferences": {},
  "deployedLinkReferences": {}
}